:020000040040BA
:1000000027BDFFE8AFBF0014AFBE001003A0F02172
:100010000C100099000000000C1000FA0000000015
:10002000004020210C10002E000000000C10001FCA
:10003000000000003C02BFD0344200148C4200009B
:10004000004020210C10002E000000000C100218AF
:1000500000000000004020210C10002E00000000D5
:100060000000102103C0E8218FBF00148FBE0010D4
:1000700027BD001803E000080000000027BDFFF0C6
:10008000AFBE000CAFB0000803A0F02124020003B3
:100090000000000C00408021AFD000008FC20000A3
:1000A00003C0E8218FBE000C8FB0000827BD0010F0
:1000B00003E000080000000027BDFFF8AFBE000409
:1000C00003A0F021AFC400088FC300080060202106
:1000D000240200050000000C03C0E8218FBE0004CC
:1000E00027BD000803E000080000000027BDFFF066
:1000F000AFBE000C03A0F021AFC40010AFC00000E1
:100100000810004F00000000AFC0000408100048B5
:10011000000000008FC2000424420001AFC20004AE
:100120008FC20004284201BE1440FFFA0000000004
:100130008FC2000024420001AFC200008FC3000044
:100140008FC200100062102A1440FFEF0000000070
:1001500003C0E8218FBE000C27BD001003E000089B
:100160000000000027BDFFF0AFBE000C03A0F0218F
:10017000AFC40010AFC0000008100068000000000D
:10018000000000000000000000000000000000006F
:10019000000000008FC2000024420001AFC2000036
:1001A0008FC300008FC200100062102A1440FFF4B9
:1001B0000000000003C0E8218FBE000C27BD001026
:1001C00003E000080000000027BDFFF8AFBE0004F8
:1001D00003A0F021AFC400083C02BFD03442001895
:1001E0008FC30008AC4300000000000000000000C6
:1001F000000000003C02BFD03442001C8C420000D2
:1002000003C0E8218FBE000427BD000803E00008FA
:100210000000000027BDFFF8AFBE000403A0F021DE
:10022000AFC40008AFC5000C3C02BFD03442001878
:100230008FC30008AC430000000000003C02BFD0A8
:100240003442001C8FC3000CAC43000000000000CF
:1002500003C0E8218FBE000427BD000803E00008AA
:100260000000000027BDFFE0AFBF001CAFBE0018BC
:1002700003A0F0210C10018C000000000C10019D67
:10028000000000000C1001B200000000AFC0001020
:10029000081000B6000000008FC2001024420010B9
:1002A000004018213C0280408FC4001000042080D0
:1002B00024421970008210218C420000006020212D
:1002C000004028210C100085000000008FC20010A3
:1002D00024420001AFC200108FC200102842000665
:1002E0001440FFED00000000AFC00014081000C66D
:1002F000000000008FC2001424420016004020219C
:10030000000028210C100085000000008FC200149E
:1003100024420001AFC200148FC20014284200081A
:100320001440FFF400000000240400FF24050080B6
:100330000C10008500000000240400012405002C9E
:100340000C10008500000000240400FE2405001F9E
:100350000C10008500000000240400FF240500A309
:100360000C10008500000000240400052405003165
:100370000C1000850000000003C0E8218FBF001CA6
:100380008FBE001827BD002003E000080000000019
:1003900027BDFFE0AFBF001CAFBE001803A0F021D7
:1003A000240400FE0C1000720000000030420080A7
:1003B000AFC200108FC20010104000040000000007
:1003C00024020008081000F40000000024020010BD
:1003D00003C0E8218FBF001C8FBE001827BD00207E
:1003E00003E000080000000027BDFFE8AFBF0014D5
:1003F000AFBE001003A0F021240400010C10007215
:1004000000000000304200400002118203C0E821D9
:100410008FBF00148FBE001027BD001803E0000836
:100420000000000027BDFFE0AFBF001CAFBE0018FA
:1004300003A0F021240400010C1000720000000051
:1004400030420080AFC200108FC200101440000480
:1004500000000000240200640810011900000000E0
:100460002402000A03C0E8218FBF001C8FBE0018C1
:1004700027BD002003E000080000000027BDFFE8C2
:10048000AFBF0014AFBE001003A0F0210000202178
:100490000C1000720000000030420008000210C280
:1004A00003C0E8218FBF00148FBE001027BD0018C5
:1004B00003E000080000000027BDFFE8AFBF001404
:1004C000AFBE001003A0F021AFC40018AFC5001CE0
:1004D0008FC20018344200402404000C0040282140
:1004E0000C100085000000008FC2001C00021203E7
:1004F000304200FF2404000E004028210C1000852B
:10050000000000008FC2001C304200FF2404000DD8
:10051000004028210C100085000000002404000B7E
:100520002405000A0C1000850000000000000000F7
:100530002404000B0C100072000000003042000187
:100540001440FFFB00000000240400050C100059BB
:10055000000000002404000B240500080C10008596
:100560000000000003C0E8218FBF00148FBE001000
:1005700027BD001803E000080000000027BDFFE0D1
:10058000AFBF001CAFBE0018AFB0001403A0F02135
:10059000AFC400208FC20020344200402404000C6D
:1005A000004028210C100085000000002404000BEE
:1005B0002405000C0C100085000000000000000065
:1005C0002404000B0C1000720000000030420001F7
:1005D0001440FFFB000000002404000B2405000869
:1005E0000C10008500000000240400050C100059C8
:1005F000000000002404000E0C1000720000000037
:10060000000282002404000D0C10007200000000A3
:100610000202102503C0E8218FBF001C8FBE001806
:100620008FB0001427BD002003E000080000000088
:1006300027BDFFE8AFBF0014AFBE001003A0F0213C
:100640002404001F000028210C1000850000000079
:10065000240400640C10003B0000000003C0E821EB
:100660008FBF00148FBE001027BD001803E00008E4
:100670000000000027BDFFE8AFBF0014AFBE0010B0
:1006800003A0F02100002021240500010C100085AA
:100690000000000000000000000020210C1000728B
:1006A00000000000304200011440FFFB0000000089
:1006B00003C0E8218FBF00148FBE001027BD0018B3
:1006C00003E000080000000027BDFFE8AFBF0014F2
:1006D000AFBE001003A0F0210000202134058000EF
:1006E0000C10012E0000000000000000000020217E
:1006F0000C10015F00000000304280001440FFFB3E
:100700000000000003C0E8218FBF00148FBE00105E
:1007100027BD001803E000080000000027BDFFE02F
:10072000AFBF001CAFBE001803A0F021AFC4002073
:10073000AFC50024240400F6000028210C10008519
:10074000000000003C02BFD034420018240300F82F
:10075000AC4300000000000000000000AFC000102B
:10076000081001F8000000008FC200100002108085
:100770008FC30020006210218C420000AFC2001421
:100780008FC20010244300018FC200240062102A8F
:100790001040000B000000008FC200102442000136
:1007A000000210808FC30020006210218C420000E4
:1007B000000212008FC3001400621025AFC20014A3
:1007C0003C02BFD03442001C8FC30014AC43000075
:1007D000000000008FC2001024420002AFC20010CF
:1007E0008FC300108FC200240062102A1440FFDE65
:1007F000000000008FC2002400021203304200FFFC
:10080000240400FD004028210C1000850000000099
:100810008FC20024304200FF240400FC0040282145
:100820000C10008500000000240400FE24050002D6
:100830000C100085000000002404000224050001C3
:100840000C1000850000000003C0E8218FBF001CD1
:100850008FBE001827BD002003E000080000000044
:1008600027BDFFE0AFBF001CAFBE001803A0F02102
:10087000240400F00C100072000000003C02BFD005
:1008800034420018240300F1AC43000000000000D3
:10089000000000003C02BFD03442001C8C4200002B
:1008A000304200FFAFC200108FC3001024020001CD
:1008B00010620004000000002402FFFF081002463E
:1008C000000000003C02BFD034420018240300F2B4
:1008D000AC43000000000000000000003C02BFD05C
:1008E0003442001C8C42000000021202304200FF21
:1008F000AFC2001000000000000000003C02BFD0AA
:100900003442001C8C420000AFC200140000000002
:10091000000000008FC2001403C0E8218FBF001C3C
:100920008FBE001827BD002003E000080000000073
:10193000000000FF000000FF000000FF000000FFAB
:10194000000000FF000000FF000000000000001188
:101950000000002200000033000000440000005599
:101960000000000800000006000000230000004204
:1019700000000011000000220000003300000044BD
:081980000000005500000066A4
:0400000500400000B7
:00000001FF
