:020000040040BA
:1000000027BDFFE0AFBF001CAFBE001803A0F0216A
:100010000C10011B000000000C1000A100000000EB
:100020000C10018400000000004020210C1000B0E2
:10003000000000000C10019300000000004020218F
:100040000C1000B000000000AFC000100810003D10
:1000500000000000240400640C1000BD000000003B
:100060000C1002A5000000003C0280408C432230AE
:100070002402FFFF1062001B000000003C028040D1
:10008000244242348C42003000021A003C0280407C
:10009000244242348C42003400621025AFC2001466
:1000A0008FC400140C1000B0000000008FC30014B7
:1000B0002402080614620003000000000C1000482F
:1000C000000000008FC30014240208001462000620
:1000D000000000000C1003B4000000000810003AFB
:1000E00000000000000000008FC200102442000148
:1000F000AFC200108FC20010284200641440FFD528
:10010000000000000000102103C0E8218FBF001C88
:100110008FBE001827BD002003E00008000000008B
:1001200027BDFFE0AFBF001CAFBE001803A0F02149
:100130003C0280402442426CAFC200108FC20010CB
:100140002442001C8C43000024020001146200477A
:10015000000000008FC200102442006000402021F7
:100160003C028040244521E8240600040C100424AD
:10017000000000001440003C000000003C028040F1
:100180002403002AAC43222C3C0280402444424CED
:10019000240508060C10030B000000003C02804000
:1001A0002442226CAFC200148FC400143C02804071
:1001B000244521F8240600070C10044A0000000022
:1001C0008FC200142442001C24030002AC43000030
:1001D0008FC2001424420020004020213C028040B5
:1001E00024452214240600060C10044A00000000D6
:1001F0008FC2001424420038004020213C0280407D
:10020000244521E8240600040C10044A00000000E4
:100210008FC20014244300488FC2001024420020E3
:100220000060202100402821240600060C10044A0A
:10023000000000008FC20014244300608FC2001031
:1002400024420038006020210040282124060004B8
:100250000C10044A000000000C10025100000000C5
:100260000810009B000000000000000003C0E8210F
:100270008FBF001C8FBE001827BD002003E00008C0
:100280000000000027BDFFF0AFBE000CAFB00008BB
:1002900003A0F021240200030000000C0040802194
:1002A000AFD000008FC2000003C0E8218FBE000C59
:1002B0008FB0000827BD001003E000080000000018
:1002C00027BDFFF8AFBE000403A0F021AFC40008B3
:1002D0008FC3000800602021240200050000000CEC
:1002E00003C0E8218FBE000427BD000803E000081A
:1002F0000000000027BDFFF0AFBE000C03A0F021FE
:10030000AFC40010AFC00000081000D10000000012
:10031000AFC00004081000CA000000008FC2000433
:1003200024420001AFC200048FC20004284201BE73
:100330001440FFFA000000008FC2000024420001B8
:10034000AFC200008FC300008FC200100062102AED
:100350001440FFEF0000000003C0E8218FBE000C36
:1003600027BD001003E000080000000027BDFFF0DB
:10037000AFBE000C03A0F021AFC40010AFC000005E
:10038000081000EA0000000000000000000000006B
:100390000000000000000000000000008FC200000C
:1003A00024420001AFC200008FC300008FC20010C2
:1003B0000062102A1440FFF40000000003C0E8218E
:1003C0008FBE000C27BD001003E0000800000000F5
:1003D00027BDFFF8AFBE000403A0F021AFC40008A2
:1003E0003C02BFD0344200188FC30008AC43000069
:1003F0000000000000000000000000003C02BFD030
:100400003442001C8C42000003C0E8218FBE00046F
:1004100027BD000803E000080000000027BDFFF82A
:10042000AFBE000403A0F021AFC40008AFC5000CAC
:100430003C02BFD0344200188FC30008AC43000018
:10044000000000003C02BFD03442001C8FC3000CEF
:10045000AC4300000000000003C0E8218FBE000490
:1004600027BD000803E000080000000027BDFFE0F2
:10047000AFBF001CAFBE001803A0F0210C10021685
:10048000000000000C100227000000000C10023CCD
:1004900000000000AFC0001008100138000000008C
:1004A0008FC2001024420010004018213C028040FE
:1004B0008FC40010000420802442221400821021E6
:1004C0008C42000000602021004028210C10010710
:1004D000000000008FC2001024420001AFC20010D3
:1004E0008FC20010284200061440FFED00000000FB
:1004F000AFC0001408100148000000008FC20014B3
:100500002442001600402021000028210C10010781
:10051000000000008FC2001424420001AFC200148A
:100520008FC20014284200081440FFF400000000AD
:100530002404001D240500800C10010700000000A9
:10054000240400FF240500800C10010700000000B7
:10055000240400012405002C0C10010700000000F9
:10056000240400FE2405001F0C10010700000000F9
:10057000240400FF240500810C1001070000000086
:1005800024040005240500310C10010700000000C0
:1005900024040031240500010C10010700000000B4
:1005A00003C0E8218FBF001C8FBE001827BD0020AC
:1005B00003E000080000000027BDFFE0AFBF001C03
:1005C000AFBE001803A0F021240400FE0C1000F4BC
:1005D0000000000030420080AFC200108FC2001047
:1005E0001040000400000000240200080810017EF2
:1005F000000000002402001003C0E8218FBF001C8F
:100600008FBE001827BD002003E000080000000096
:1006100027BDFFE8AFBF0014AFBE001003A0F0215C
:10062000240400010C1000F40000000030420040DF
:100630000002118203C0E8218FBF00148FBE00109A
:1006400027BD001803E000080000000027BDFFE000
:10065000AFBF001CAFBE001803A0F02124040001AE
:100660000C1000F40000000030420080AFC2001007
:100670008FC2001014400004000000002402006437
:10068000081001A3000000002402000A03C0E821B2
:100690008FBF001C8FBE001827BD002003E000089C
:1006A0000000000027BDFFE8AFBF0014AFBE001080
:1006B00003A0F021000020210C1000F40000000035
:1006C00030420008000210C203C0E8218FBF0014AE
:1006D0008FBE001027BD001803E0000800000000D6
:1006E00027BDFFE8AFBF0014AFBE001003A0F0218C
:1006F000AFC40018AFC5001C8FC2001834420040C0
:100700002404000C004028210C1001070000000008
:100710008FC2001C00021203304200FF2404000EAE
:10072000004028210C100107000000008FC2001CAF
:10073000304200FF2404000D004028210C10010766
:10074000000000002404000B2405000A0C1001071F
:1007500000000000000000002404000B0C1000F456
:1007600000000000304200011440FFFB00000000C8
:10077000240400050C1000DB000000002404000B22
:10078000240500080C1001070000000003C0E82148
:100790008FBF00148FBE001027BD001803E00008B3
:1007A0000000000027BDFFE0AFBF001CAFBE001877
:1007B000AFB0001403A0F021AFC400208FC200200E
:1007C000344200402404000C004028210C10010792
:1007D000000000002404000B2405000C0C1001078D
:1007E00000000000000000002404000B0C1000F4C6
:1007F00000000000304200011440FFFB0000000038
:100800002404000B240500080C1001070000000060
:10081000240400050C1000DB000000002404000E7E
:100820000C1000F400000000000282002404000DFF
:100830000C1000F4000000000202102503C0E821A3
:100840008FBF001C8FBE00188FB0001427BD002082
:1008500003E000080000000027BDFFE8AFBF001460
:10086000AFBE001003A0F0212404001F00002821C7
:100870000C10010700000000240400640C1000BDEF
:100880000000000003C0E8218FBF00148FBE0010DD
:1008900027BD001803E000080000000027BDFFE8A6
:1008A000AFBF0014AFBE001003A0F0210000202154
:1008B000240500010C1001070000000000000000EA
:1008C000000020210C1000F4000000003042000164
:1008D0001440FFFB0000000003C0E8218FBF00149C
:1008E0008FBE001027BD001803E0000800000000C4
:1008F00027BDFFE8AFBF0014AFBE001003A0F0217A
:1009000000002021340580000C1001B80000000018
:1009100000000000000020210C1001E90000000090
:10092000304280001440FFFB0000000003C0E821BB
:100930008FBF00148FBE001027BD001803E0000811
:100940000000000027BDFFE0AFBF001CAFBE0018D5
:1009500003A0F021240400F6000028210C10010758
:10096000000000003C02BFD034420018240300F80D
:10097000AC4300000000000000000000AFC0001009
:1009800008100282000000003C0280408FC300106B
:100990000003188024422234006210218C4200009F
:1009A000AFC200148FC20010244300013C028040FB
:1009B0008C42222C1062000C000000008FC200103C
:1009C000244300013C02804000031880244222346A
:1009D000006210218C420000000212008FC300143C
:1009E00000621025AFC200143C02BFD03442001C8C
:1009F0008FC30014AC430000000000008FC2001041
:100A000024420002AFC200103C0280408C42222CE3
:100A10008FC300100062102A1440FFDB00000000AA
:100A20003C0280408C42222C00021203304200FF24
:100A3000240400FD004028210C10010700000000E4
:100A40003C0280408C42222C304200FF240400FCF7
:100A5000004028210C10010700000000240400FEC3
:100A6000240500020C10010700000000240400020D
:100A7000240500010C1001070000000003C0E8215C
:100A80008FBF001C8FBE001827BD002003E00008A8
:100A90000000000027BDFFD8AFBF0024AFBE00207C
:100AA00003A0F021240400F00C1000F4000000006A
:100AB0003C02BFD034420018240300F1AC430000D4
:100AC00000000000000000003C02BFD03442001CC7
:100AD0008C420000304200FFAFC200148FC30014EC
:100AE0002402000110620006000000003C02804069
:100AF0002403FFFFAC432230081003050000000070
:100B00003C02BFD034420018240300F2AC43000082
:100B100000000000000000003C02BFD03442001C76
:100B20008C42000000021202304200FFAFC20014EB
:100B300000000000000000003C02BFD03442001C56
:100B40008C420000004018213C028040AC4322301F
:100B500000000000000000008FC200143042003F7F
:100B600010400006000000003C0280402403FFFF0C
:100B7000AC4322300810030500000000AFC0001095
:100B8000081002FB000000003C02BFD03442001CF1
:100B90008C420000AFC200188FC20018304300FF23
:100BA0003C0280408FC40010000420802442423464
:100BB00000821021AC4300008FC2001024440001C9
:100BC0008FC2001800021203304300FF3C02804035
:100BD000000420802442423400821021AC430000F3
:100BE0008FC2001024420002AFC200103C028040BD
:100BF0008C4222308FC300100062102A1440FFE2A2
:100C000000000000240400FE240500010C10010770
:100C10000000000003C0E8218FBF00248FBE002029
:100C200027BD002803E000080000000027BDFFE802
:100C3000AFBF0014AFBE001003A0F021AFC4001876
:100C4000AFC5001C3C028040244422348FC50018EC
:100C5000240600060C10044A000000003C028040FC
:100C60002444224C3C0280402445221424060006E1
:100C70000C10044A000000008FC2001C0002120386
:100C8000304300FF3C02804024422234AC43003019
:100C90008FC2001C304300FF3C02804024422234BB
:100CA000AC43003403C0E8218FBF00148FBE001096
:100CB00027BD001803E000080000000027BDFFE08A
:100CC000AFBF001CAFBE001803A0F021AFC40020CE
:100CD0003C028040244242BCAFC200108FC20010D0
:100CE0008C4300002402000814620023000000006E
:100CF0003C028040244222BCAFC200148FC20014C8
:100D0000AC4000008FC2001424420004AC4000003C
:100D10008FC20014244400108FC20010244300101E
:100D20008FC200202442FFFC0060282100403021B7
:100D30000C10044A000000008FC400108FC5002072
:100D40000C10036500000000240400018FC5002082
:100D50000C1003E1000000008FC200202443002299
:100D60003C028040AC43222C0C10025100000000D9
:100D70000810035F000000000000000003C0E8212D
:100D80008FBF001C8FBE001827BD002003E00008A5
:100D90000000000027BDFFE8AFBE001403A0F02153
:100DA000AFC40018AFC5001C8FC200182442000851
:100DB000AC4000008FC200182442000CAC40000080
:100DC000AFC00000AFC00004081003900000000096
:100DD0008FC20004000210808FC30018006210212F
:100DE0008C42000000021200AFC200088FC2000453
:100DF000244300018FC2001C1062000A00000000A2
:100E00008FC2000424420001000210808FC300182A
:100E1000006210218C4200008FC300080062102580
:100E2000AFC200088FC300008FC20008006210210B
:100E3000AFC200008FC2000424420002AFC200040F
:100E40008FC300048FC2001C0062102A1440FFE010
:100E5000000000008FC2000000021C038FC20000CF
:100E60003042FFFF00621021AFC200008FC20000BD
:100E700000021C038FC200003042FFFF00621021FD
:100E8000AFC200008FC2000000021027AFC20000F6
:100E90008FC20018244200088FC3000000031A0309
:100EA000306300FFAC4300008FC200182442000CE6
:100EB0008FC30000306300FFAC43000003C0E82193
:100EC0008FBE001427BD001803E0000800000000DA
:100ED00027BDFFE0AFBF001CAFBE001803A0F0218C
:100EE0003C0280402442426CAFC200108FC200100E
:100EF0008C430000240200451462001B0000000027
:100F00008FC20010244200088C42000000021A0028
:100F10008FC200102442000C8C4200000062102599
:100F2000AFC200148FC200142442FFECAFC2001401
:100F30008FC400140C1000B0000000008FC200101D
:100F4000244200248C4300002402000114620007A4
:100F5000000000008FC400140C10032F00000000DC
:100F6000081003DB000000000000000003C0E821BF
:100F70008FBF001C8FBE001827BD002003E00008B3
:100F80000000000027BDFFE0AFBF001CAFBE00188F
:100F900003A0F021AFC40020AFC500248FC20024FD
:100FA00024420014AFC200243C0280402444424C3E
:100FB000240508000C10030B000000003C028040D8
:100FC0002442226CAFC200108FC2001024030045DF
:100FD000AC4300008FC20010244200088FC30024DD
:100FE00000031A03306300FFAC4300008FC20010FF
:100FF0002442000C8FC30024306300FFAC43000088
:101000008FC2001024420018AC4000008FC20010B4
:101010002442001CAC4000008FC20010244200207B
:1010200024030040AC4300008FC20010244200247F
:101030008FC30020AC4300008FC200102442003058
:10104000004020213C028040244521E82406000481
:101050000C10044A000000008FC20010244200401F
:10106000004020213C0280402445429C240600048C
:101070000C10044A0000000003C0E8218FBF001CD0
:101080008FBE001827BD002003E00008000000000C
:1010900027BDFFF0AFBE000C03A0F021AFC40010CD
:1010A000AFC50014AFC60018AFC000000810043F61
:1010B000000000008FC20000000210808FC30010EB
:1010C000006210218C4300008FC2000000021080DB
:1010D0008FC40014008210218C42000010620004B2
:1010E000000000002402FFFF08100445000000007B
:1010F0008FC2000024420001AFC200008FC3000075
:101100008FC200180062102A1440FFEA000000009D
:101110000000102103C0E8218FBE000C27BD001085
:1011200003E000080000000027BDFFF0AFBE000C88
:1011300003A0F021AFC40010AFC50014AFC6001863
:10114000AFC0000008100460000000008FC2000063
:10115000000210808FC30010006210218FC30000B6
:10116000000318808FC40014008318218C630000D2
:10117000AC4300008FC2000024420001AFC2000057
:101180008FC300008FC200180062102A1440FFEFC6
:101190000000000003C0E8218FBE000C27BD001036
:0811A00003E00008000000005C
:1021A800000000FF000000FF000000FF000000FF2B
:1021B800000000FF000000FF000000000000001108
:1021C8000000002200000033000000440000005519
:1021D8000000000800000006000000230000004284
:1021E800000000C0000000A800000001000000E995
:1021F80000000000000000010000000800000000CE
:10220800000000060000000400000000000000F0CC
:10221800000000DE000000F100000044000000554E
:04222800000000664C
:0400000500400000B7
:00000001FF
