:020000040040BA
:1000000027BDFFE8AFBF0014AFBE001003A0F02172
:100010000C10013C000000000C10014D000000001D
:100020000C100162000000003C0280402444170CC8
:10003000240500090C100189000000000C10009933
:1000400000000000004020210C10004700000000CC
:100050000C1000B000000000004020210C100047F0
:10006000000000000C1000BF000000000040202134
:100070000C100047000000000C1000D5000000002C
:10008000004020210C10004700000000000000008C
:100090000000000000000000000000000000000060
:1000A0000000000000000000000000000000000050
:1000B0000000000000000000000000000000000040
:1000C000000000000000102103C0E8218FBF0014D1
:1000D0008FBE001027BD001803E0000800000000DC
:1000E00027BDFFF0AFBE000CAFB0000803A0F021A9
:1000F000240200030000000C00408021AFD000006B
:100100008FC2000003C0E8218FBE000C8FB0000832
:1001100027BD001003E000080000000027BDFFF825
:10012000AFBE000403A0F021AFC400088FC30008D5
:1001300000602021240200050000000C03C0E8211B
:100140008FBE000427BD000803E000080000000087
:1001500027BDFFF0AFBE000C03A0F021AFC400101C
:10016000AFC000000810006800000000AFC000042D
:1001700008100061000000008FC20004244200014A
:10018000AFC200048FC20004284201BE1440FFFA2F
:10019000000000008FC2000024420001AFC2000036
:1001A0008FC300008FC200100062102A1440FFEFBE
:1001B0000000000003C0E8218FBE000C27BD001026
:1001C00003E000080000000027BDFFF8AFBE0004F8
:1001D00003A0F021AFC400083C02BFD03442001895
:1001E0008FC30008AC4300000000000000000000C6
:1001F000000000003C02BFD03442001C8C420000D2
:1002000003C0E8218FBE000427BD000803E00008FA
:100210000000000027BDFFF8AFBE000403A0F021DE
:10022000AFC40008AFC5000C3C02BFD03442001878
:100230008FC30008AC430000000000003C02BFD0A8
:100240003442001C8FC3000CAC43000000000000CF
:1002500003C0E8218FBE000427BD000803E00008AA
:100260000000000027BDFFE0AFBF001CAFBE0018BC
:1002700003A0F021240400FE0C1000720000000016
:10028000000211C2AFC200108FC30010240200018F
:10029000146200040000000024020008081000AAF4
:1002A000000000002402001003C0E8218FBF001CE2
:1002B0008FBE001827BD002003E0000800000000EA
:1002C00027BDFFE8AFBF0014AFBE001003A0F021B0
:1002D000240400010C1000720000000030420040B5
:1002E0000002118203C0E8218FBF00148FBE0010EE
:1002F00027BD001803E000080000000027BDFFE054
:10030000AFBF001CAFBE001803A0F0212404000101
:100310000C1000720000000030420080AFC20010DC
:100320008FC200101440000400000000240200648A
:10033000081000CF000000002402000A03C0E821DA
:100340008FBF001C8FBE001827BD002003E00008EF
:100350000000000027BDFFE8AFBF0014AFBE0010D3
:1003600003A0F021000020210C100072000000000A
:1003700030420008000210C203C0E8218FBF001401
:100380008FBE001027BD001803E000080000000029
:1003900027BDFFE8AFBF0014AFBE001003A0F021DF
:1003A000AFC40018AFC5001C8FC200183442004013
:1003B0002404000C004028210C10008500000000DF
:1003C0008FC2001C00021203304200FF2404000E02
:1003D000004028210C100085000000008FC2001C86
:1003E000304200FF2404000D004028210C1000853D
:1003F000000000002404000B2405000A0C100085F6
:1004000000000000000000002404000B0C1000722B
:1004100000000000304200011440FFFB000000001B
:1004200024040008000028210C10008500000000B2
:1004300003C0E8218FBF00148FBE001027BD001835
:1004400003E000080000000027BDFFE0AFBF001C74
:10045000AFBE0018AFB0001403A0F021AFC400205D
:100460008FC20020344200402404000C00402821A8
:100470000C100085000000002404000B2405000C73
:100480000C10008500000000000000002404000B98
:100490000C10007200000000304200011440FFFB0D
:1004A000000000002404000B000028210C1000852F
:1004B000000000002404000E0C1000720000000078
:1004C000000282002404000D0C10007200000000E5
:1004D0000202102503C0E8218FBF001C8FBE001848
:1004E0008FB0001427BD002003E0000800000000CA
:1004F00027BDFFE8AFBF0014AFBE001003A0F0217E
:100500002404001F000028210C10008500000000BA
:10051000240400640C1000540000000003C0E82113
:100520008FBF00148FBE001027BD001803E0000825
:100530000000000027BDFFE8AFBF0014AFBE0010F1
:1005400003A0F02100002021240500010C100085EB
:100550000000000000000000000020210C100072CC
:1005600000000000304200011440FFFB00000000CA
:1005700003C0E8218FBF00148FBE001027BD0018F4
:1005800003E000080000000027BDFFE8AFBF001433
:10059000AFBE001003A0F021000020213405800030
:1005A0000C1000E400000000000000002404000122
:1005B0000C10007200000000304200401040FFFBB1
:1005C0000000000024040004240505E10C1000E4F0
:1005D0000000000000002021240512000C1000E49F
:1005E0000000000000000000240400010C10007254
:1005F00000000000304200401040FFFB00000000FF
:10060000240400050C1000540000000003C0E82181
:100610008FBF00148FBE001027BD001803E0000834
:100620000000000027BDFFE0AFBF001CAFBE0018F8
:1006300003A0F021AFC40020AFC500243C02BFD00E
:1006400034420018240300F8AC430000000000000E
:1006500000000000AFC00010081001A4000000005E
:100660003C02BFD03442001C8FC30010000318802E
:100670008FC40020008318218C630000AC4300006D
:10068000000000008FC2001024420001AFC2001021
:100690008FC300108FC200240062102A1440FFF0A4
:1006A000000000008FC2002400021040AFC20024EE
:1006B0008FC2002400021203304200FF240400FD18
:1006C000004028210C100085000000008FC200248B
:1006D000304200FF240400FC004028210C1000855B
:1006E0000000000024040002240500010C10008515
:1006F0000000000003C0E8218FBF001C8FBE00185F
:0C07000027BD002003E0000800000000FE
:10170C000000FFFF0000FFFF0000FFFF00000000D3
:10171C0000001111000022220000080600004242C5
:04172C000000424235
:0400000500400000B7
:00000001FF
