:020000040040BA
:1000000027BDFFE0AFBF001CAFBE001803A0F0216A
:100010000C10011E000000000C1000A400000000E5
:100020000C10018700000000004020210C1000B3DC
:10003000000000000C10019600000000004020218C
:100040000C1000B300000000AFC00010081000400A
:1000500000000000000000003C02BFD03442001449
:100060008C4200001040FFFC000000000C1002A9B0
:10007000000000003C0280408C4320D82402FFFF97
:100080001062001B000000003C028040244240DC63
:100090008C42003000021A003C028040244240DCC6
:1000A0008C42003400621025AFC200148FC40014CB
:1000B0000C1000B3000000008FC3001424020806D7
:1000C00014620003000000000C10004B0000000050
:1000D0008FC3001424020800146200060000000010
:1000E0000C100361000000000810003D000000003B
:1000F000000000008FC2001024420001AFC20010B7
:100100008FC200102842000A1440FFD200000000F5
:100110000000102103C0E8218FBF001C8FBE001813
:1001200027BD002003E000080000000027BDFFE01D
:10013000AFBF001CAFBE001803A0F0213C028040FE
:1001400024424114AFC200108FC200102442001C90
:100150008C430000240200011462004700000000EC
:100160008FC2001024420060004020213C028040E9
:1001700024452090240600040C1003CE000000004B
:100180001440003C000000003C0280402403002A90
:10019000AC4320D43C028040244440F424050806AB
:1001A0000C10030F000000003C0280402442211488
:1001B000AFC200148FC400143C028040244520A02C
:1001C000240600070C1003F4000000008FC2001486
:1001D0002442001C24030002AC4300008FC2001420
:1001E00024420020004020213C028040244520BCC5
:1001F000240600060C1003F4000000008FC2001457
:1002000024420038004020213C02804024452090B8
:10021000240600040C1003F4000000008FC2001438
:10022000244300488FC20010244200200060202197
:1002300000402821240600060C1003F400000000F2
:100240008FC20014244300608FC200102442003883
:100250000060202100402821240600040C1003F433
:10026000000000000C100254000000000810009E66
:10027000000000000000000003C0E8218FBF001C48
:100280008FBE001827BD002003E00008000000001A
:1002900027BDFFF0AFBE000CAFB0000803A0F021F7
:1002A000240200030000000C00408021AFD00000B9
:1002B0008FC2000003C0E8218FBE000C8FB0000881
:1002C00027BD001003E000080000000027BDFFF874
:1002D000AFBE000403A0F021AFC400088FC3000824
:1002E00000602021240200050000000C03C0E8216A
:1002F0008FBE000427BD000803E0000800000000D6
:1003000027BDFFF0AFBE000C03A0F021AFC400106A
:10031000AFC00000081000D400000000AFC000040F
:10032000081000CD000000008FC20004244200012C
:10033000AFC200048FC20004284201BE1440FFFA7D
:10034000000000008FC2000024420001AFC2000084
:100350008FC300008FC200100062102A1440FFEF0C
:100360000000000003C0E8218FBE000C27BD001074
:1003700003E000080000000027BDFFF0AFBE000C46
:1003800003A0F021AFC40010AFC00000081000EDC2
:10039000000000000000000000000000000000005D
:1003A00000000000000000008FC200002442000195
:1003B000AFC200008FC300008FC200100062102A7D
:1003C0001440FFF40000000003C0E8218FBE000CC1
:1003D00027BD001003E000080000000027BDFFF863
:1003E000AFBE000403A0F021AFC400083C02BFD0A0
:1003F000344200188FC30008AC4300000000000026
:1004000000000000000000003C02BFD03442001C8D
:100410008C42000003C0E8218FBE000427BD000805
:1004200003E000080000000027BDFFF8AFBE000495
:1004300003A0F021AFC40008AFC5000C3C02BFD040
:10044000344200188FC30008AC43000000000000D5
:100450003C02BFD03442001C8FC3000CAC430000F0
:100460000000000003C0E8218FBE000427BD000883
:1004700003E000080000000027BDFFE0AFBF001C44
:10048000AFBE001803A0F0210C10021900000000FC
:100490000C10022A000000000C10023F00000000B7
:1004A000AFC000100810013B000000008FC2001018
:1004B00024420010004018213C0280408FC40010EC
:1004C00000042080244220BC008210218C420000C5
:1004D00000602021004028210C10010A00000000CB
:1004E0008FC2001024420001AFC200108FC2001062
:1004F000284200061440FFED00000000AFC00014C9
:100500000810014B000000008FC2001424420016A6
:1005100000402021000028210C10010A00000000EA
:100520008FC2001424420001AFC200148FC2001415
:10053000284200081440FFF4000000002404001DBD
:10054000240500800C10010A00000000240400FFB4
:10055000240500800C10010A0000000024040001A2
:100560002405002C0C10010A00000000240400FEE9
:100570002405001F0C10010A00000000240400FFE5
:10058000240500810C10010A00000000240400056D
:10059000240500310C10010A000000002404003181
:1005A000240500010C10010A0000000003C0E8212E
:1005B0008FBF001C8FBE001827BD002003E000087D
:1005C0000000000027BDFFE0AFBF001CAFBE001859
:1005D00003A0F021240400FE0C1000F7000000002E
:1005E00030420080AFC200108FC2001010400004E3
:1005F0000000000024020008081001810000000033
:100600002402001003C0E8218FBF001C8FBE001819
:1006100027BD002003E000080000000027BDFFE820
:10062000AFBF0014AFBE001003A0F02124040001EE
:100630000C1000F700000000304200400002118260
:1006400003C0E8218FBF00148FBE001027BD001823
:1006500003E000080000000027BDFFE0AFBF001C62
:10066000AFBE001803A0F021240400010C1000F715
:100670000000000030420080AFC200108FC20010A6
:10068000144000040000000024020064081001A6C9
:10069000000000002402000A03C0E8218FBF001CF4
:1006A0008FBE001827BD002003E0000800000000F6
:1006B00027BDFFE8AFBF0014AFBE001003A0F021BC
:1006C000000020210C1000F700000000304200085C
:1006D000000210C203C0E8218FBF00148FBE0010BB
:1006E00027BD001803E000080000000027BDFFE858
:1006F000AFBF0014AFBE001003A0F021AFC40018BC
:10070000AFC5001C8FC20018344200402404000C06
:10071000004028210C10010A000000008FC2001CBC
:1007200000021203304200FF2404000E0040282182
:100730000C10010A000000008FC2001C304200FFB4
:100740002404000D004028210C10010A00000000C4
:100750002404000B2405000A0C10010A000000000C
:10076000000000002404000B0C1000F70000000043
:10077000304200011440FFFB00000000240400058B
:100780000C1000DE000000002404000B240500080B
:100790000C10010A0000000003C0E8218FBF001404
:1007A0008FBE001027BD001803E000080000000005
:1007B00027BDFFE0AFBF001CAFBE0018AFB00014F4
:1007C00003A0F021AFC400208FC2002034420040BB
:1007D0002404000C004028210C10010A0000000035
:1007E0002404000B2405000C0C10010A000000007A
:1007F000000000002404000B0C1000F700000000B3
:10080000304200011440FFFB000000002404000BF4
:10081000240500080C10010A000000002404000553
:100820000C1000DE000000002404000E0C1000F785
:1008300000000000000282002404000D0C1000F7EC
:10084000000000000202102503C0E8218FBF001C39
:100850008FBE00188FB0001427BD002003E00008F1
:100860000000000027BDFFE8AFBF0014AFBE0010BE
:1008700003A0F0212404001F000028210C10010A0D
:1008800000000000240400640C1000C00000000000
:1008900003C0E8218FBF00148FBE001027BD0018D1
:1008A00003E000080000000027BDFFE8AFBF001410
:1008B000AFBE001003A0F02100002021240500019C
:1008C0000C10010A000000000000000000002021C0
:1008D0000C1000F700000000304200011440FFFB44
:1008E0000000000003C0E8218FBF00148FBE00107D
:1008F00027BD001803E000080000000027BDFFE846
:10090000AFBF0014AFBE001003A0F02100002021F3
:10091000340580000C1001BB000000000000000046
:10092000000020210C1001EC00000000304280008B
:100930001440FFFB0000000003C0E8218FBF00143B
:100940008FBE001027BD001803E000080000000063
:1009500027BDFFE0AFBF001CAFBE001803A0F02111
:10096000240400F6000028210C10010A00000000F9
:100970003C02BFD034420018240300F8AC4300000E
:100980000000000000000000AFC000100810028648
:10099000000000003C0280408FC30010000318805C
:1009A000244220DC006210218C420000AFC20014FF
:1009B0008FC20010244300013C0280408C4220D4AE
:1009C0000062102A1040000C000000008FC20010CE
:1009D000244300013C02804000031880244220DCB4
:1009E000006210218C420000000212008FC300142C
:1009F00000621025AFC200143C02BFD03442001C7C
:100A00008FC30014AC430000000000008FC2001030
:100A100024420002AFC200103C0280408C4220D42D
:100A20008FC300100062102A1440FFDA000000009B
:100A30003C0280408C4220D400021203304200FF6E
:100A4000240400FD004028210C10010A00000000D1
:100A50003C0280408C4220D4304200FF240400FC41
:100A6000004028210C10010A00000000240400FEB0
:100A7000240500020C10010A0000000024040002FA
:100A8000240500010C10010A0000000003C0E82149
:100A90008FBF001C8FBE001827BD002003E0000898
:100AA0000000000027BDFFD8AFBF0024AFBE00206C
:100AB00003A0F021240400F00C1000F70000000057
:100AC0003C02BFD034420018240300F1AC430000C4
:100AD00000000000000000003C02BFD03442001CB7
:100AE0008C420000304200FFAFC200148FC30014DC
:100AF0002402000110620006000000003C02804059
:100B00002403FFFFAC4320D80810030900000000B5
:100B10003C02BFD034420018240300F2AC43000072
:100B200000000000000000003C02BFD03442001C66
:100B30008C42000000021202304200FFAFC20014DB
:100B400000000000000000003C02BFD03442001C46
:100B50008C420000004018213C028040AC4320D869
:100B600000000000000000008FC200143042003F6F
:100B700010400006000000003C0280402403FFFFFC
:100B8000AC4320D80810030900000000AFC00010DB
:100B9000081002FF000000003C02BFD03442001CDD
:100BA0008C420000AFC200188FC20018304300FF13
:100BB0003C0280408FC4001000042080244240DCAE
:100BC00000821021AC4300008FC2001024440001B9
:100BD0008FC2001800021203304300FF3C02804025
:100BE00000042080244240DC00821021AC4300003D
:100BF0008FC2001024420002AFC200103C028040AD
:100C00008C4220D88FC300100062102A1440FFE2EB
:100C100000000000240400FE240500010C10010A5D
:100C20000000000003C0E8218FBF00248FBE002019
:100C300027BD002803E000080000000027BDFFE8F2
:100C4000AFBF0014AFBE001003A0F021AFC4001866
:100C5000AFC5001C3C028040244420DC8FC5001836
:100C6000240600060C1003F4000000003C02804043
:100C7000244420F43C028040244520BC2406000685
:100C80000C1003F4000000008FC2001C00021203CD
:100C9000304300FF3C028040244220DCAC43003063
:100CA0008FC2001C304300FF3C028040244220DC05
:100CB000AC43003403C0E8218FBF00148FBE001086
:100CC00027BD001803E000080000000027BDFFE07A
:100CD000AFBF001CAFBE001803A0F021AFC40020BE
:100CE0003C02804024424164AFC200108FC2001019
:100CF0008C430000240200081462001B0000000066
:100D00003C02804024422164AFC200148FC2001410
:100D1000AC4000008FC2001424420004AC4000002C
:100D20008FC20014244400108FC20010244300100E
:100D30008FC200202442FFFC0060282100403021A7
:100D40000C1003F400000000240400018FC50020F3
:100D50000C10038B000000000C1002540000000077
:100D60000810035B000000000000000003C0E82141
:100D70008FBF001C8FBE001827BD002003E00008B5
:100D80000000000027BDFFE0AFBF001CAFBE001891
:100D900003A0F0213C02804024424114AFC2001065
:100DA0008FC200108C43000024020045146200181A
:100DB000000000008FC20010244200088C42000096
:100DC00000021A008FC200102442000C8C42000066
:100DD00000621025AFC200148FC200142442FFEC41
:100DE000AFC200148FC20010244200248C430000C4
:100DF0002402000114620007000000008FC40014E8
:100E00000C100333000000000810038500000000F0
:100E10000000000003C0E8218FBF001C8FBE001837
:100E200027BD002003E000080000000027BDFFE010
:100E3000AFBF001CAFBE001803A0F021AFC400205C
:100E4000AFC500248FC2002424420014AFC2002486
:100E50003C028040244440F4240508000C10030F99
:100E6000000000003C02804024422114AFC2001068
:100E70008FC2001024030045AC4300008FC2001055
:100E8000244200088FC3002400031A03306300FFCC
:100E9000AC4300008FC200102442000C8FC300241A
:100EA000306300FFAC4300008FC2001024420018E2
:100EB000AC4000008FC200102442001CAC40000077
:100EC0008FC200102442002024030040AC430000E5
:100ED0008FC20010244200248FC30020AC430000C6
:100EE0008FC2001024420030004020213C0280408C
:100EF00024452090240600040C1003F40000000098
:100F00008FC2001024420040004020213C0280405B
:100F100024454144240600040C1003F400000000A2
:100F200003C0E8218FBF001C8FBE001827BD002022
:100F300003E000080000000027BDFFF0AFBE000C7A
:100F400003A0F021AFC40010AFC50014AFC6001855
:100F5000AFC00000081003E9000000008FC20000CD
:100F6000000210808FC30010006210218C4300002B
:100F70008FC20000000210808FC400140082102174
:100F80008C42000010620004000000002402FFFFF9
:100F9000081003EF000000008FC20000244200018F
:100FA000AFC200008FC300008FC200180062102A79
:100FB0001440FFEA000000000000102103C0E821F7
:100FC0008FBE000C27BD001003E0000800000000E9
:100FD00027BDFFF0AFBE000C03A0F021AFC400108E
:100FE000AFC50014AFC60018AFC000000810040A57
:100FF000000000008FC20000000210808FC30010AC
:10100000006210218FC30000000318808FC40014F9
:10101000008318218C630000AC4300008FC20000E5
:1010200024420001AFC200008FC300008FC200182D
:101030000062102A1440FFEF0000000003C0E82106
:101040008FBE000C27BD001003E000080000000068
:10205000000000FF000000FF000000FF000000FF84
:10206000000000FF000000FF000000000000001161
:102070000000002200000033000000440000005572
:1020800000000008000000060000002300000042DD
:10209000000000C0000000A800000001000000E9EE
:1020A0000000000000000001000000080000000027
:1020B000000000060000000400000000000000F026
:1020C000000000DE000000F10000004400000055A8
:0420D00000000066A6
:0400000500400000B7
:00000001FF
