:020000040040BA
:1000000027BDFFD8AFBF0024AFBE002003A0F02162
:100010000C100118000000000C10009E00000000F1
:100020000C10017D00000000004020210C1000ADEC
:10003000000000000C10018C000000000040202196
:100040000C1000AD00000000AFC000100810003D13
:1000500000000000000000003C02BFD03442001449
:100060008C4200001040FFFC000000000C10029BBE
:1000700000000000AFC200148FC300142402FFFF71
:1000800010620018000000003C02804024421E1C48
:100090008C42003000021A003C02804024421E1CA8
:1000A0008C42003400621025AFC200188FC40018C3
:1000B0000C1000AD000000008FC3001824020806D9
:1000C00014620009000000003C02804024441E1C11
:1000D0008FC500140C100048000000000810003A02
:1000E00000000000000000008FC200102442000148
:1000F000AFC200108FC200102842000A1440FFD582
:10010000000000000000102103C0E8218FBF002480
:100110008FBE002027BD002803E00008000000007B
:1001200027BDFF40AFBF00BCAFBE00B803A0F021A9
:10013000AFC400C0AFC500C48FC200C02442005489
:100140008C430000240200011462004500000000FE
:10015000340488230C1000AD000000008FC200C0E2
:1001600024420098004020213C02804024451DD8B4
:10017000240600040C100320000000001440003886
:1001800000000000340488240C1000AD00000000C2
:100190008FC200C02442005827C3001000602021F5
:1001A00000402821240608060C1002FB0000000075
:1001B00027C20048004020213C02804024451DE821
:1001C000240600070C100346000000002402000271
:1001D000AFC2006427C20068004020213C0280407A
:1001E00024451E04240600060C10034600000000EF
:1001F00027C20080004020213C02804024451DD8B9
:10020000240600040C100346000000008FC200C04A
:100210002442005827C3009000602021004028217C
:10022000240600060C100346000000008FC200C028
:100230002442007027C300A800602021004028212C
:10024000240600040C1003460000000027C2001022
:10025000004020212405002A0C10024A0000000062
:1002600003C0E8218FBF00BC8FBE00B827BD00C00F
:1002700003E000080000000027BDFFF0AFBE000C47
:10028000AFB0000803A0F021240200030000000C1E
:1002900000408021AFD000008FC2000003C0E821E1
:1002A0008FBE000C8FB0000827BD001003E00008CF
:1002B0000000000027BDFFF8AFBE000403A0F0213E
:1002C000AFC400088FC3000800602021240200058D
:1002D0000000000C03C0E8218FBE000427BD000809
:1002E00003E000080000000027BDFFF0AFBE000CD7
:1002F00003A0F021AFC40010AFC00000081000CE72
:1003000000000000AFC00004081000C7000000009B
:100310008FC2000424420001AFC200048FC2000457
:10032000284201BE1440FFFA000000008FC2000006
:1003300024420001AFC200008FC300008FC2001032
:100340000062102A1440FFEF0000000003C0E82103
:100350008FBE000C27BD001003E000080000000065
:1003600027BDFFF0AFBE000C03A0F021AFC400100A
:10037000AFC00000081000E700000000000000000F
:10038000000000000000000000000000000000006D
:100390008FC2000024420001AFC200008FC30000E2
:1003A0008FC200100062102A1440FFF40000000009
:1003B00003C0E8218FBE000C27BD001003E0000839
:1003C0000000000027BDFFF8AFBE000403A0F0212D
:1003D000AFC400083C02BFD0344200188FC30008ED
:1003E000AC4300000000000000000000000000001E
:1003F0003C02BFD03442001C8C42000003C0E82104
:100400008FBE000427BD000803E0000800000000C4
:1004100027BDFFF8AFBE000403A0F021AFC4000861
:10042000AFC5000C3C02BFD0344200188FC3000897
:10043000AC430000000000003C02BFD03442001C6E
:100440008FC3000CAC4300000000000003C0E82193
:100450008FBE000427BD000803E000080000000074
:1004600027BDFFE0AFBF001CAFBE001803A0F02106
:100470000C10020F000000000C1002200000000011
:100480000C10023500000000AFC00010081001354C
:10049000000000008FC2001024420010004018210C
:1004A0003C0280408FC400100004208024421E04BF
:1004B000008210218C420000006020210040282191
:1004C0000C100104000000008FC200102442000143
:1004D000AFC200108FC20010284200061440FFED8A
:1004E00000000000AFC0001408100145000000002B
:1004F0008FC2001424420016004020210000282151
:100500000C100104000000008FC2001424420001FE
:10051000AFC200148FC20014284200081440FFF438
:10052000000000002404001D240500800C100104BC
:1005300000000000240400FF240500800C100104CA
:1005400000000000240400012405002C0C1001040C
:1005500000000000240400FE2405001F0C1001040C
:1005600000000000240400FF240500810C10010499
:100570000000000024040005240500310C100104D3
:100580000000000003C0E8218FBF001C8FBE0018D0
:1005900027BD002003E000080000000027BDFFE0A9
:1005A000AFBF001CAFBE001803A0F021240400FE62
:1005B0000C1000F10000000030420080AFC20010BB
:1005C0008FC2001010400004000000002402000848
:1005D00008100177000000002402001003C0E82189
:1005E0008FBF001C8FBE001827BD002003E000084D
:1005F0000000000027BDFFE8AFBF0014AFBE001031
:1006000003A0F021240400010C1000F10000000000
:10061000304200400002118203C0E8218FBF001465
:100620008FBE001027BD001803E000080000000086
:1006300027BDFFE0AFBF001CAFBE001803A0F02134
:10064000240400010C1000F1000000003042008082
:10065000AFC200108FC20010144000040000000060
:10066000240200640810019C000000002402000A1B
:1006700003C0E8218FBF001C8FBE001827BD0020DB
:1006800003E000080000000027BDFFE8AFBF001432
:10069000AFBE001003A0F021000020210C1000F1DB
:1006A0000000000030420008000210C203C0E82130
:1006B0008FBF00148FBE001027BD001803E0000894
:1006C0000000000027BDFFE8AFBF0014AFBE001060
:1006D00003A0F021AFC40018AFC5001C8FC20018E2
:1006E000344200402404000C004028210C10010476
:1006F000000000008FC2001C00021203304200FF05
:100700002404000E004028210C1001040000000009
:100710008FC2001C304200FF2404000D004028213D
:100720000C100104000000002404000B2405000A42
:100730000C10010400000000000000002404000B65
:100740000C1000F100000000304200011440FFFBDB
:1007500000000000240400050C1000D80000000078
:100760002404000B240500080C1001040000000004
:1007700003C0E8218FBF00148FBE001027BD0018F2
:1007800003E000080000000027BDFFE0AFBF001C31
:10079000AFBE0018AFB0001403A0F021AFC400201A
:1007A0008FC20020344200402404000C0040282165
:1007B0000C100104000000002404000B2405000CB0
:1007C0000C10010400000000000000002404000BD5
:1007D0000C1000F100000000304200011440FFFB4B
:1007E000000000002404000B240500080C10010484
:1007F00000000000240400050C1000D800000000D8
:100800002404000E0C1000F1000000000002820021
:100810002404000D0C1000F100000000020210255D
:1008200003C0E8218FBF001C8FBE00188FB00014DA
:1008300027BD002003E000080000000027BDFFE8FE
:10084000AFBF0014AFBE001003A0F0212404001FAE
:10085000000028210C1001040000000024040064A2
:100860000C1000BA0000000003C0E8218FBF001484
:100870008FBE001027BD001803E000080000000034
:1008800027BDFFE8AFBF0014AFBE001003A0F021EA
:1008900000002021240500010C10010400000000CC
:1008A00000000000000020210C1000F100000000FA
:1008B000304200011440FFFB0000000003C0E821AB
:1008C0008FBF00148FBE001027BD001803E0000882
:1008D0000000000027BDFFE8AFBF0014AFBE00104E
:1008E00003A0F02100002021340580000C1001B18C
:1008F0000000000000000000000020210C1001E2B8
:1009000000000000304280001440FFFB00000000A7
:1009100003C0E8218FBF00148FBE001027BD001850
:1009200003E000080000000027BDFFE0AFBF001C8F
:10093000AFBE001803A0F021AFC40020AFC5002453
:10094000240400F6000028210C100104000000001F
:100950003C02BFD034420018240300F8AC4300002E
:100960000000000000000000AFC000100810027B73
:10097000000000008FC20010000210808FC3002012
:10098000006210218C420000AFC200148FC2001020
:10099000244300018FC200240062102A1040000B83
:1009A000000000008FC200102442000100021080ED
:1009B0008FC30020006210218C4200000002120050
:1009C0008FC3001400621025AFC200143C02BFD0D8
:1009D0003442001C8FC30014AC4300000000000030
:1009E0008FC2001024420002AFC200108FC300105B
:1009F0008FC200240062102A1440FFDE00000000B5
:100A00008FC2002400021203304200FF240400FDC4
:100A1000004028210C100104000000008FC20024B7
:100A2000304200FF240400FC004028210C10010487
:100A300000000000240400FE240500020C10010444
:100A40000000000024040002240500010C10010431
:100A50000000000003C0E8218FBF001C8FBE0018FB
:100A600027BD002003E000080000000027BDFFD8DC
:100A7000AFBF0024AFBE002003A0F021240400F08B
:100A80000C1000F1000000003C02BFD034420018FE
:100A9000240300F1AC43000000000000000000004F
:100AA0003C02BFD03442001C8C420000304200FFA8
:100AB000AFC200148FC300142402000110620004AE
:100AC000000000002402FFFF081002F500000000F3
:100AD0003C02BFD034420018240300F2AC430000B3
:100AE00000000000000000003C02BFD03442001CA7
:100AF0008C42000000021202304200FFAFC200141C
:100B000000000000000000003C02BFD03442001C86
:100B10008C420000AFC2001800000000000000007E
:100B20008FC200143042003F10400004000000005B
:100B30002402FFFF081002F500000000AFC0001003
:100B4000081002EB000000003C02BFD03442001C41
:100B50008C420000AFC2001C8FC2001C304300FF5B
:100B60003C0280408FC400100004208024421E1CE0
:100B700000821021AC4300008FC200102444000109
:100B80008FC2001C00021203304300FF3C02804071
:100B90000004208024421E1C00821021AC4300006F
:100BA0008FC2001024420002AFC200108FC3001099
:100BB0008FC200180062102A1440FFE300000000FA
:100BC000240400FE240500010C10010400000000B4
:100BD0008FC2001803C0E8218FBF00248FBE002001
:100BE00027BD002803E000080000000027BDFFE843
:100BF000AFBF0014AFBE001003A0F021AFC40018B7
:100C0000AFC5001CAFC600208FC400188FC5001CE4
:100C1000240600060C100346000000008FC20018D6
:100C200024420018004020213C02804024451E043C
:100C3000240600060C100346000000008FC20018B6
:100C4000244200308FC3002000031A03306300FFEA
:100C5000AC4300008FC20018244200348FC3002030
:100C6000306300FFAC43000003C0E8218FBF0014D5
:100C70008FBE001027BD001803E000080000000030
:100C800027BDFFF0AFBE000C03A0F021AFC40010E1
:100C9000AFC50014AFC60018AFC000000810033B7A
:100CA000000000008FC20000000210808FC30010FF
:100CB000006210218C4300008FC2000000021080EF
:100CC0008FC40014008210218C42000010620004C6
:100CD000000000002402FFFF081003410000000094
:100CE0008FC2000024420001AFC200008FC3000089
:100CF0008FC200180062102A1440FFEA00000000B2
:100D00000000102103C0E8218FBE000C27BD001099
:100D100003E000080000000027BDFFF0AFBE000C9C
:100D200003A0F021AFC40010AFC50014AFC6001877
:100D3000AFC000000810035C000000008FC200007C
:100D4000000210808FC30010006210218FC30000CA
:100D5000000318808FC40014008318218C630000E6
:100D6000AC4300008FC2000024420001AFC200006B
:100D70008FC300008FC200180062102A1440FFEFDA
:100D80000000000003C0E8218FBE000C27BD00104A
:080D900003E000080000000070
:101D9800000000FF000000FF000000FF000000FF3F
:101DA800000000FF000000FF00000000000000111C
:101DB800000000220000003300000044000000552D
:101DC8000000000800000006000000230000004298
:101DD800000000C0000000A800000001000000E9A9
:101DE800000000000000000100000080000000006A
:101DF80000000006000000040000000000000011C0
:101E080000000022000000330000004400000055DC
:041E18000000006660
:0400000500400000B7
:00000001FF
