:020000040040BA
:1000000027BDFFF0AFBE000C03A0F0213C02BFD023
:100010003442001824030029AC4300003C02BFD046
:100020003442001C8C42000000000000AFC20000FF
:100030003C028FD0344200088FC300000000000053
:10004000AC4300000000102103C0E8218FBE000C6B
:1000500027BD001003E000080000000027BDFFF0EE
:10006000AFBE000CAFB0000803A0F02124020003D3
:100070000000000C00408021AFD000008FC20000C3
:1000800003C0E8218FBE000C8FB0000827BD001010
:1000900003E000080000000027BDFFF8AFBE000429
:1000A00003A0F021AFC400088FC3000800000000C7
:1000B00000602021240200050000000C03C0E8219C
:1000C0008FBE000427BD000803E000080000000008
:1000D00027BDFFF0AFBE000C03A0F021AFC400109D
:1000E000AFC000000810004B00000000AFC00004CB
:1000F00008100042000000008FC200040000000051
:1001000024420001AFC200048FC2000400000000BE
:10011000284201BE1440FFF8000000008FC200001A
:100120000000000024420001AFC200008FC30000A5
:100130008FC20010000000000062102A1440FFEB84
:100140000000000003C0E8218FBE000C27BD001096
:1001500003E000080000000027BDFFF8AFBE000468
:1001600003A0F021AFC400083C02BFD03442001805
:100170008FC3000800000000AC4300000000000036
:1001800000000000000000003C02BFD03442001C10
:100190008C42000003C0E8218FBE000427BD000888
:1001A00003E000080000000027BDFFF8AFBE000418
:1001B00003A0F021AFC40008AFC5000C3C02BFD0C3
:1001C000344200188FC3000800000000AC43000058
:1001D000000000003C02BFD03442001C8FC3000C62
:1001E00000000000AC4300000000000003C0E82154
:1001F0008FBE000427BD000803E0000800000000D7
:1002000027BDFFE8AFBF0014AFBE001003A0F02170
:10021000AFC40018AFC5001C8FC20018000000005A
:10022000344200402404000C004028210C10006AD5
:10023000000000008FC2001C00000000000212033A
:10024000304200FF2404000E004028210C10006AF8
:10025000000000008FC2001C00000000304200FFC0
:100260002404000D004028210C10006A000000004A
:100270002404000B2405000A0C10006A0000000092
:10028000000000002404000B0C10005600000000C9
:10029000304200011440FFFB00000000240400086D
:1002A000000028210C10006A0000000003C0E821B3
:1002B0008FBF00148FBE001027BD001803E0000898
:1002C0000000000027BDFFE0AFBF001CAFBE00185C
:1002D000AFB0001403A0F021AFC400208FC20020F3
:1002E00000000000344200402404000C004028219B
:1002F0000C10006A000000002404000B2405000C10
:100300000C10006A00000000000000002404000B34
:100310000C10005600000000304200011440FFFBAA
:10032000000000002404000B000028210C10006ACB
:10033000000000002404000E0C1000560000000015
:10034000000282002404000D0C1000560000000082
:100350000202102503C0E8218FBF001C8FBE0018C9
:100360008FB0001427BD002003E00008000000004B
:0400000500400000B7
:00000001FF
